:100000000C9462000C948A000C948A000C948A0070
:100010000C948A000C948A000C948A000C948A0038
:100020000C948A000C948A000C948A000C948A0028
:100030000C948A000C948A000C948A000C948A0018
:100040000C94DB020C948A000C948A000C948A00B5
:100050000C948A000C948A000C948A000C948A00F8
:100060000C948A000C948A000000000024002700F1
:100070002A0000000000250028002B0000000000DE
:1000800023002600290004040404040404040202DA
:100090000202020203030303030301020408102007
:1000A0004080010204081020010204081020000012
:1000B0000008000201000003040700000000000027
:1000C0000000070411241FBECFEFD8E0DEBFCDBF74
:1000D00011E0A0E0B1E0EAE5F8E002C005900D9281
:1000E000A431B107D9F721E0A4E1B1E001C01D922C
:1000F000A833B207E1F710E0C2E6D0E004C02197D0
:10010000FE010E942504C136D107C9F70E942503CC
:100110000C942B040C940000833081F028F481307F
:1001200099F08230A9F008958730A9F08830C9F09D
:100130008430B1F4809180008F7D03C08091800075
:100140008F7780938000089584B58F7784BD08955C
:1001500084B58F7DFBCF8091B0008F778093B00006
:1001600008958091B0008F7DF9CFCF93DF93282F32
:1001700030E0F901E255FF4F8491F901E656FF4F57
:10018000D491F901EA57FF4FC491CC23A1F081111A
:100190000E948C00EC2FF0E0EE0FFF1FE458FF4FA1
:1001A000A591B491EC91ED2381E090E009F480E019
:1001B000DF91CF91089580E090E0FACF1F93CF9325
:1001C000DF93282F30E0F901E255FF4F8491F901C8
:1001D000E656FF4FD491F901EA57FF4FC491CC2363
:1001E000A9F0162F81110E948C00EC2FF0E0EE0F89
:1001F000FF1FEE58FF4FA591B4918FB7F894EC9183
:10020000111108C0D095DE23DC938FBFDF91CF9111
:100210001F910895DE2BF8CFCF93DF9390E0FC0180
:10022000E656FF4F24918A579F4FFC018491882303
:10023000D1F090E0880F991FFC01E859FF4FA5917C
:10024000B491FC01EE58FF4FC591D49161110EC0DD
:100250009FB7F8948C91E22FE0958E238C932881A0
:10026000E223E8839FBFDF91CF9108958FB7F89481
:10027000EC91E22BEC938FBFF6CF3FB7F8948091CF
:100280001C0190911D01A0911E01B0911F0126B586
:10029000A89B05C02F3F19F00196A11DB11D3FBFBE
:1002A000BA2FA92F982F8827BC01CD01620F711D8D
:1002B000811D911D42E0660F771F881F991F4A9587
:1002C000D1F70895AF92BF92CF92DF92EF92FF9253
:1002D0000F931F93CF93DF936C017B018B01040F6E
:1002E000151FEB015E01AE18BF08C017D10759F00A
:1002F0006991D601ED91FC910190F081E02DC6014C
:100300000995892B79F7C501DF91CF911F910F9145
:10031000FF90EF90DF90CF90BF90AF900895089539
:1003200090E080E00895CF93DF93EC0160E08E8150
:100330000E94DE0061E08E810E94DE0060E08E811E
:100340000E94DE008BE891E00197F1F7DF91CF91F9
:100350000895CF92DF92EF92FF920F931F93CF9366
:10036000DF936C017C0187E0E80EF11CD0E0C0E077
:10037000062F10E0B8010C2E02C0759567950A94FF
:10038000E2F76170F70181917F010E94DE00219602
:10039000C430D10579F7C601DF91CF911F910F913C
:1003A000FF90EF90DF90CF900C949301CF92DF926B
:1003B000EF92FF920F931F93CF93DF93EC01F62EF2
:1003C000642F8C810E94DE008D818F3F19F060E0E8
:1003D0000E94DE000F2D10E08F8584FF25C06E0186
:1003E00087E0C80ED11CF12CE12CB8010E2C02C004
:1003F000759567950A94E2F76170F60181916F0136
:100400000E94DE00FFEFEF1AFF0A88E0E816F10411
:1004100061F7CE01DF91CF911F910F91FF90EF9087
:10042000DF90CF900C949301B80184E075956795A7
:100430008A95E1F7CE010E94A9016F2DCE01DF91CF
:10044000CF911F910F91FF90EF90DF90CF900C9480
:10045000A90140E0682F80E291E00C94D601CF938F
:10046000DF93823029F490912F01986090932F01AF
:10047000809333011092340180E48093350180E150
:100480008093360180E58093370161E080912401FB
:100490000E940C01809125018F3F19F061E00E94BC
:1004A0000C0161E0809126010E940C01C0E2D1E0C4
:1004B0009E012052314080912F0184FD0BC084E0C9
:1004C00090E021962817390744F461E08E810E945C
:1004D0000C01EECF88E090E0F4CF8BE39DE0019734
:1004E000F1F760E0809124010E94DE0060E08091DD
:1004F00026010E94DE00809125018F3F19F060E007
:100500000E94DE0080912F0184FD39C063E080E20B
:1005100091E00E94A901CBE4D6E4CE010197F1F766
:1005200063E080E291E00E94A9012197F1F763E086
:1005300080E291E00E94A90183E592E00197F1F742
:1005400062E080E291E00E94A90180912F01806227
:100550000E94290284E0809330018CE00E942902ED
:1005600081E00E9429028BE39FE10197F1F782E08D
:100570008093310186E0DF91CF910C942902806253
:100580000E9429028BE496E40197F1F780912F01F4
:1005900080620E94290283E592E00197F1F7809141
:1005A0002F0180620E942902D0CF41E00E94D60133
:1005B00081E090E008951F920F920FB60F921124E0
:1005C0002F933F938F939F93AF93BF938091180185
:1005D00090911901A0911A01B0911B01309117015E
:1005E00023E0230F2D3758F50196A11DB11D20934F
:1005F00017018093180190931901A0931A01B093E9
:100600001B0180911C0190911D01A0911E01B091D0
:100610001F010196A11DB11D80931C0190931D0126
:10062000A0931E01B0931F01BF91AF919F918F9135
:100630003F912F910F900FBE0F901F90189526E8B5
:10064000230F0296A11DB11DD2CF789484B582608C
:1006500084BD84B5816084BD85B5826085BD85B566
:10066000816085BD80916E00816080936E001092E4
:10067000810080918100826080938100809181005F
:1006800081608093810080918000816080938000F0
:100690008091B10084608093B1008091B00081604E
:1006A0008093B00080917A00846080937A0080917A
:1006B0007A00826080937A0080917A0081608093D2
:1006C0007A0080917A00806880937A001092C1004D
:1006D00082E00E942F0260E087E00E940C0160E04F
:1006E00088E00E940C0160E086E00E940C01E1E0DD
:1006F000809133018111E0E0E195F0E0E05EFE4F92
:1007000084898A5F80680E94290245E050E06DE09C
:1007100071E080E291E00E946201C0E0D0E080914F
:10072000160181110BC086E00E94B500892B31F0C3
:1007300088E10E94290288E10E9429028091150126
:10074000811117C087E00E94B500892B91F0F090CD
:10075000000180913001FF2009F453C08B7F80930A
:10076000300188600E94290281E0F11080E08093CE
:1007700000018091140181110BC088E00E94B50036
:10078000892B31F08CE10E9429028CE10E94290220
:1007900086E00E94B5008093160187E00E94B500B4
:1007A0008093150188E00E94B500809314010E9497
:1007B0003D014B015C0184E6C82ED12CE12CF12CCB
:1007C0000E943D01681979098A099B09683E7340B6
:1007D00081059105A8F321E0C21AD108E108F108CA
:1007E00088EE880E83E0981EA11CB11CC114D104B0
:1007F000E104F10429F7209709F491CF0E94000049
:100800008ECF982F9460909330018C60ABCFE0E254
:10081000F1E01382128285E091E0918380838CE085
:1008200084838FEF85838BE0868385E0878384E0F4
:10083000808783E0818782E082871386148615860D
:100840001686178681E00C942F02EE0FFF1F05908D
:0A085000F491E02D0994F894FFCF15
:10085A000100000000D502620190018F0148454C59
:04086A004C4F0000EF
:00000001FF
