:100000000C9461000C947E000C947E000C947E0095
:100010000C947E000C947E000C947E000C947E0068
:100020000C947E000C947E000C947E000C947E0058
:100030000C947E000C947E000C947E000C947E0048
:100040000C94E8010C947E000C947E000C947E00CD
:100050000C947E000C947E000C947E000C947E0028
:100060000C947E000C947E00000000002400270009
:100070002A0000000000250028002B0000000000DE
:1000800023002600290004040404040404040202DA
:100090000202020203030303030301020408102007
:1000A0004080010204081020010204081020000012
:1000B0000008000201000003040700000000000027
:1000C000000011241FBECFEFD8E0DEBFCDBF11E08E
:1000D000A0E0B1E0ECECF5E002C005900D92A2309A
:1000E000B107D9F721E0A2E0B1E001C01D92AF3025
:1000F000B207E1F70E9432020C94E4020C94000073
:10010000833081F028F4813099F08230A9F008958D
:100110008730A9F08830C9F08430B1F48091800034
:100120008F7D03C0809180008F7780938000089539
:1001300084B58F7784BD089584B58F7DFBCF809182
:10014000B0008F778093B00008958091B0008F7DCC
:10015000F9CFCF93DF93282F30E0F901E255FF4F1D
:100160008491F901E656FF4FD491F901EA57FF4F08
:10017000C491CC23A1F081110E948000EC2FF0E00B
:10018000EE0FFF1FE458FF4FA591B491EC91ED23C2
:1001900081E090E009F480E0DF91CF91089580E064
:1001A00090E0FACF1F93CF93DF93282F30E0F9012F
:1001B000E255FF4F8491F901E656FF4FD491F901C2
:1001C000EA57FF4FC491CC23A9F0162F81110E944A
:1001D0008000EC2FF0E0EE0FFF1FEE58FF4FA591CF
:1001E000B4918FB7F894EC91111108C0D095DE232B
:1001F000DC938FBFDF91CF911F910895DE2BF8CF55
:10020000CF93DF9390E0FC01E656FF4F24918A578D
:100210009F4FFC0184918823D1F090E0880F991FB3
:10022000FC01E859FF4FA591B491FC01EE58FF4F36
:10023000C591D49161110EC09FB7F8948C91E22FB3
:10024000E0958E238C932881E223E8839FBFDF9182
:10025000CF9108958FB7F894EC91E22BEC938FBF78
:10026000F6CF1F93CF93DF93182FEB0161E00E942D
:100270000001209739F460E0812FDF91CF911F9129
:100280000C94D200CF3FD10511F461E0F5CFE12FFE
:10029000F0E0E255FF4FE491E33031F140F4E1301A
:1002A000B1F0E230E1F0C038D1057CF7E4CFE730BF
:1002B00029F1E83059F1E430B1F780918000806293
:1002C00080938000D0938B00C0938A0004C084B5D3
:1002D000806884BDC7BDDF91CF911F91089584B51B
:1002E000806284BDC8BDF7CF809180008068809314
:1002F0008000D0938900C0938800EDCF8091B0003A
:1003000080688093B000C093B300E5CF8091B000C7
:1003100080628093B000C093B400DDCF3FB7F89403
:1003200080910B0190910C01A0910D01B0910E01F3
:1003300026B5A89B05C02F3F19F00196A11DB11D40
:100340003FBFBA2FA92F982F8827BC01CD01620F7C
:10035000711D811D911D42E0660F771F881F991F37
:100360004A95D1F708958F929F92AF92BF92CF9204
:10037000DF92EF92FF920E948E014B015C0188ECAC
:10038000C82ED12CE12CF12C0E948E01681979091C
:100390008A099B09683E734081059105A8F321E015
:1003A000C21AD108E108F10888EE880E83E0981E91
:1003B000A11CB11CC114D104E104F10429F7FF9080
:1003C000EF90DF90CF90BF90AF909F908F90089567
:1003D0001F920F920FB60F9211242F933F938F937A
:1003E0009F93AF93BF938091070190910801A091D3
:1003F0000901B0910A013091060123E0230F2D3746
:1004000058F50196A11DB11D2093060180930701A7
:1004100090930801A0930901B0930A0180910B0108
:1004200090910C01A0910D01B0910E010196A11DBA
:10043000B11D80930B0190930C01A0930D01B0931B
:100440000E01BF91AF919F918F913F912F910F908E
:100450000FBE0F901F90189526E8230F0296A11D3E
:10046000B11DD2CF789484B5826084BD84B581609B
:1004700084BD85B5826085BD85B5816085BD80916F
:100480006E00816080936E001092810080918100E7
:1004900082608093810080918100816080938100DF
:1004A000809180008160809380008091B1008460A1
:1004B0008093B1008091B00081608093B000809102
:1004C0007A00846080937A0080917A0082608093C1
:1004D0007A0080917A00816080937A0080917A001E
:1004E000806880937A001092C10061E08AE00E94E7
:1004F000000160E082E00E94000160E081E00E9473
:100500000001C0E0D0E00FEF10E080910401909175
:1005100005010197E1F482E00E94A900892BB9F45A
:100520008091000190910101C2968F3F910511F0D9
:100530000CF040C090930101809300016091000194
:10054000709101018AE00E9431010E94B301809103
:100550000201909103010197C9F481E00E94A90072
:10056000892BA1F48091000190910101C29797FD20
:1005700026C0909301018093000160910001709169
:1005800001018AE00E9431010E94B30182E00E94D1
:10059000A900909305018093040181E00E94A900C5
:1005A0009093030180930201209709F4AECF0E943B
:1005B0000000ABCF1093010100930001BFCF109258
:0C05C000010110920001D9CFF894FFCF88
:0205CC008000AD
:00000001FF
