:100000000C9462000C948A000C948A000C948A0070
:100010000C948A000C948A000C948A000C948A0038
:100020000C948A000C948A000C948A000C948A0028
:100030000C948A000C948A000C948A000C948A0018
:100040000C94D6020C948A000C948A000C948A00BA
:100050000C948A000C948A000C948A000C948A00F8
:100060000C948A000C948A000000000024002700F1
:100070002A0000000000250028002B0000000000DE
:1000800023002600290004040404040404040202DA
:100090000202020203030303030301020408102007
:1000A0004080010204081020010204081020000012
:1000B0000008000201000003040700000000000027
:1000C0000000DA0311241FBECFEFD8E0DEBFCDBFA2
:1000D00011E0A0E0B1E0E0E0F8E002C005900D9290
:1000E000A231B107D9F721E0A2E1B1E001C01D9230
:1000F000A533B207E1F710E0C2E6D0E004C02197D3
:10010000FE010E94F803C136D107C9F70E942003FF
:100110000C94FE030C940000833081F028F48130AD
:1001200099F08230A9F008958730A9F08830C9F09D
:100130008430B1F4809180008F7D03C08091800075
:100140008F7780938000089584B58F7784BD08955C
:1001500084B58F7DFBCF8091B0008F778093B00006
:1001600008958091B0008F7DF9CFCF93DF93E5EBB9
:10017000F0E08491E1EAF0E0D491EDE8F0E0C491A0
:10018000CC23A1F081110E948C00EC2FF0E0EE0F47
:10019000FF1FE458FF4FA591B491EC91ED2381E04E
:1001A00090E009F480E0DF91CF91089580E090E045
:1001B000FACF1F93CF93DF93282F30E0F901E25558
:1001C000FF4F8491F901E656FF4FD491F901EA57A8
:1001D000FF4FC491CC23A9F0162F81110E948C00EF
:1001E000EC2FF0E0EE0FFF1FEE58FF4FA591B491FA
:1001F0008FB7F894EC91111108C0D095DE23DC93F1
:100200008FBFDF91CF911F910895DE2BF8CFCF9351
:10021000DF9390E0FC01E656FF4F24918A579F4FF1
:10022000FC0184918823D1F090E0880F991FFC0194
:10023000E859FF4FA591B491FC01EE58FF4FC591CD
:10024000D49161110EC09FB7F8948C91E22FE09584
:100250008E238C932881E223E8839FBFDF91CF9187
:1002600008958FB7F894EC91E22BEC938FBFF6CF03
:100270003FB7F8948091190190911A01A0911B0148
:10028000B0911C0126B5A89B05C02F3F19F001961F
:10029000A11DB11D3FBFBA2FA92F982F8827BC01E0
:1002A000CD01620F711D811D911D42E0660F771F08
:1002B000881F991F4A95D1F70895AF92BF92CF92A8
:1002C000DF92EF92FF920F931F93CF93DF936C0116
:1002D0007B018B01040F151FEB015E01AE18BF08F7
:1002E000C017D10759F06991D601ED91FC910190A9
:1002F000F081E02DC6010995892B79F7C501DF91C1
:10030000CF911F910F91FF90EF90DF90CF90BF9012
:10031000AF900895089590E080E00895CF93DF9323
:10032000EC0160E08E810E94D90061E08E810E9424
:10033000D90060E08E810E94D9008BE891E001979E
:10034000F1F7DF91CF910895CF92DF92EF92FF9274
:100350000F931F93CF93DF936C017C0187E0E80E2E
:10036000F11CD0E0C0E0062F10E0B8010C2E02C056
:10037000759567950A94E2F76170F70181917F01A5
:100380000E94D9002196C430D10579F7C601DF91CA
:10039000CF911F910F91FF90EF90DF90CF900C9431
:1003A0008E01CF92DF92EF92FF920F931F93CF9324
:1003B000DF93EC01F62E642F8C810E94D9008D8191
:1003C0008F3F19F060E00E94D9000F2D10E08F855B
:1003D00084FF25C06E0187E0C80ED11CF12CE12CF2
:1003E000B8010E2C02C0759567950A94E2F761700A
:1003F000F60181916F010E94D900FFEFEF1AFF0A09
:1004000088E0E816F10461F7CE01DF91CF911F91EA
:100410000F91FF90EF90DF90CF900C948E01B80178
:1004200084E0759567958A95E1F7CE010E94A40155
:100430006F2DCE01DF91CF911F910F91FF90EF9023
:10044000DF90CF900C94A40140E0682F8DE191E003
:100450000C94D101CF93DF93823029F490912C0139
:10046000986090932C01809330011092310180E4C8
:100470008093320180E18093330180E580933401E1
:1004800061E0809121010E940701809122018F3F4C
:1004900019F061E00E94070161E0809123010E9450
:1004A0000701CDE1D1E09E012D51314080912C0119
:1004B00084FD0BC084E090E021962817390744F4AE
:1004C00061E08E810E940701EECF88E090E0F4CFDA
:1004D0008BE39DE00197F1F760E0809121010E949C
:1004E000D90060E0809123010E94D900809122010F
:1004F0008F3F19F060E00E94D90080912C0184FDAB
:1005000039C063E08DE191E00E94A401CBE4D6E420
:10051000CE010197F1F763E08DE191E00E94A40123
:100520002197F1F763E08DE191E00E94A40183E55A
:1005300092E00197F1F762E08DE191E00E94A40161
:1005400080912C0180620E94240284E080932D011E
:100550008CE00E94240281E00E9424028BE39FE150
:100560000197F1F782E080932E0186E0DF91CF9131
:100570000C94240280620E9424028BE496E401978A
:10058000F1F780912C0180620E94240283E592E0C1
:100590000197F1F780912C0180620E942402D0CF54
:1005A00041E00E94D10181E090E008951F920F92F6
:1005B0000FB60F9211242F933F938F939F93AF9376
:1005C000BF938091150190911601A0911701B091F0
:1005D00018013091140123E0230F2D3758F50196AF
:1005E000A11DB11D20931401809315019093160154
:1005F000A0931701B09318018091190190911A01ED
:10060000A0911B01B0911C010196A11DB11D809309
:10061000190190931A01A0931B01B0931C01BF9183
:10062000AF919F918F913F912F910F900FBE0F909F
:100630001F90189526E8230F0296A11DB11DD2CF59
:10064000789484B5826084BD84B5816084BD85B5AD
:10065000826085BD85B5816085BD80916E008160B9
:1006600080936E001092810080918100826080935F
:100670008100809181008160809381008091800061
:100680008160809380008091B10084608093B1008C
:100690008091B00081608093B00080917A00846086
:1006A00080937A0080917A00826080937A008091B2
:1006B0007A00816080937A0080917A0080688093CC
:1006C0007A001092C10082E00E942A0260E087E076
:1006D0000E94070161E081E00E94070180912D01E5
:1006E000982F946090932D018C600E94240260E00A
:1006F00081E00E94D90045E050E06CE071E08DE1BE
:1007000091E00E945D01C0E0D0E080911301811171
:100710001BC00E94B500892BB9F0F09012018091A6
:100720002D01FF2009F43EC0982F946090932D0175
:100730008C600E94240260E081E00E94D90081E088
:10074000F11080E0809312010E94B50080931301A4
:100750000E9438014B015C0184E6C82ED12CE12CAB
:10076000F12C0E943801681979098A099B09683EB1
:10077000734081059105A8F321E0C21AD108E10870
:10078000F10888EE880E83E0981EA11CB11CC114EC
:10079000D104E104F10429F7209709F4B6CF0E94AF
:1007A0000000B3CF8B7F80932D0188600E942402CC
:1007B00061E0C2CFEDE1F1E01382128284E091E0CA
:1007C000918380838CE084838FEF85838BE08683A5
:1007D00085E0878384E0808783E0818782E0828769
:1007E0001386148615861686178681E00C942A02D5
:1007F000EE0FFF1F0590F491E02D0994F894FFCFC0
:1008000000000000D0025D018B018A0148454C4C7C
:020810004F0097
:00000001FF
