:100000000C9461000C947E000C947E000C947E0095
:100010000C947E000C947E000C947E000C947E0068
:100020000C947E000C947E000C947E000C947E0058
:100030000C947E000C947E000C947E000C947E0048
:100040000C9429010C947E000C947E000C947E008C
:100050000C947E000C947E000C947E000C947E0028
:100060000C947E000C947E0000000000230026000B
:10007000290000000000240027002A0000000000E2
:10008000250028002B0004040404040404040202D4
:100090000202020203030303030301020408102007
:1000A0004080010204081020010204081020000012
:1000B0000008000201000003040700000000000027
:1000C000000011241FBECFEFD8E0DEBFCDBF11E08E
:1000D000A0E0B1E0E6E0F5E002C005900D92A630A8
:1000E000B107D9F721E0A6E0B1E001C01D92A5312A
:1000F000B207E1F70E9473010C9481020C94000096
:10010000833081F028F4813099F08230A9F008958D
:100110008730A9F08830C9F08430B1F48091800034
:100120008F7D03C0809180008F7780938000089539
:1001300084B58F7784BD089584B58F7DFBCF809182
:10014000B0008F778093B00008958091B0008F7DCC
:10015000F9CF1F93CF93DF93282F30E0F901E255B9
:10016000FF4F8491F901E656FF4FD491F901EA5708
:10017000FF4FC491CC23A9F0162F81110E9480005B
:10018000EC2FF0E0EE0FFF1FE458FF4FA591B49164
:100190008FB7F894EC91111108C0D095DE23DC9351
:1001A0008FBFDF91CF911F910895DE2BF8CFCF93B2
:1001B000DF9390E0FC01E656FF4F24918A579F4F52
:1001C000FC0184918823D1F090E0880F991FFC01F5
:1001D000EE58FF4FA591B491FC01E458FF4FC59133
:1001E000D491623071F49FB7F8943C91822F80953E
:1001F00083238C93E8812E2B28839FBFDF91CF919F
:1002000008958FB7F894EC912E2B2C938FBFF6CFD7
:1002100080910601909107018130910561F024F4ED
:1002200060E0892B79F008958230910551F060E00B
:10023000039711F0089561E089E00E94A90061E050
:1002400005C061E089E00E94A90060E08AE00C94AA
:10025000A9001F920F920FB60F9211242F933F9374
:100260008F939F93AF93BF9380911101909112014F
:10027000A0911301B09114013091100123E0230FDC
:100280002D3758F50196A11DB11D209310018093C3
:10029000110190931201A0931301B0931401809166
:1002A0000C0190910D01A0910E01B0910F010196EA
:1002B000A11DB11D80930C0190930D01A0930E011F
:1002C000B0930F01BF91AF919F918F913F912F916B
:1002D0000F900FBE0F901F90189526E8230F0296DF
:1002E000A11DB11DD2CF789484B5826084BD84B540
:1002F000816084BD85B5826085BD85B5816085BD21
:1003000080916E00816080936E00109281008091D8
:100310008100826080938100809181008160809360
:100320008100809180008160809380008091B10085
:1003300084608093B1008091B00081608093B000B0
:1003400080917A00846080937A0080917A00826044
:1003500080937A0080917A00816080937A00809106
:100360007A00806880937A001092C10062E082E097
:100370000E94D70061E089E00E94D70061E08AE036
:100380000E94D7000E940801C0EBD0E00CE910E009
:1003900098E8E92E90E0F92E24E0A22EB12C30E06E
:1003A000C32E30E0D32EFE018491F8019490F70122
:1003B0008490882009F47AC081110E948000E82D81
:1003C000F0E0EE0FFF1FE859FF4FA591B4918C911B
:1003D000982231E020E009F430E0832F922F9093AF
:1003E0000501809304012091020130910301281737
:1003F000390799F02FB7F89480911101909112016B
:10040000A0911301B09114012FBF80930801909324
:100410000901A0930A01B0930B012FB7F8948091C2
:10042000110190911201A0911301B09114012FBFFD
:10043000409108015091090160910A0170910B01EE
:10044000841B950BA60BB70BC397A105B105F8F05C
:1004500080910401909105012091000130910101EA
:1004600082179307A1F09093010180930001892BDB
:1004700071F480910601909107010196B5010E94E7
:10048000590290930701809306010E940801809110
:100490000401909105019093030180930201C1141E
:1004A000D10409F480CF0E9400007DCF90E080E06D
:1004B00096CF97FB072E16F4009407D077FD09D04E
:1004C0000E946D0207FC05D03EF4909581959F4FE8
:1004D0000895709561957F4F0895AA1BBB1B51E14C
:1004E00007C0AA1FBB1FA617B70710F0A61BB70BA4
:1004F000881F991F5A95A9F780959095BC01CD0149
:060500000895F894FFCFFE
:06050600010001000100EC
:00000001FF
